:100000000C94A21C0C9410220C9444220C94782280
:100010000C94AC220C94E0220C9414230C94C31C7A
:100020000C94C31C0C94A1230C94CE230C94FC239D
:100030000C94C31C0C94C31C0C94C31C0C94C31CC4
:100040000C94C31C0C94F93A0C94C31C0C94C31C60
:100050000C94C31C0C94C31C0C94C31C0C94C31CA4
:100060000C94852E0C94212F0C94D62F0C94892F50
:100070000C94C31C0C9484210C94C31C0C94C31CBE
:100080000C9480270C94C31C0C94C31C0C94C31CAC
:100090000C94D72F0C948C300C943F300C94D12AB4
:1000A0000C94C31C0C94C31C0C94C31C0C94C31C54
:1000B0000C94C31C0C94C31C0C94C31C0C94C31C44
:1000C0000C94C31C0C94C31C0C94C31C0C948D3056
:1000D0000C9442310C94F5300C9443310C94F8316B
:1000E0000C94AB31256C752E2530336C753A255345
:1000F0003A25733A25733A20006465627567006992
:100100006E666F007761726E696E67006572726FFE
:100110007200666174616C002F6472697665727337
:100120002F756172742F72785F6572726F727300CF
:100130002F647269766572732F756172742F72788D
:100140005F6368616E6E656C5F6F766572666C6F1B
:1001500077002F686F6D652F6572696B2F776F72EF
:100160006B73706163652F73696D62612F73696D65
:1001700062612F7372632F647269766572732F7375
:10018000656E736F72732F6468742E633A323736FC
:100190003A204153534552543A202874696D655FA3
:1001A0006D6963726F735F6D6178696D756D282914
:1001B000203E203130302C204541535345525429A4
:1001C000200D0A0025642E25303475000000211012
:1001D000422063308440A550C660E77008812991B1
:1001E0004AA16BB18CC1ADD1CEE1EFF13112100259
:1001F00073325222B5529442F772D6623993188301
:100200007BB35AA3BDD39CC3FFF3DEE36224433424
:1002100020040114E664C774A44485546AA54BB550
:1002200028850995EEE5CFF5ACC58DD553367226F8
:1002300011163006D776F6669556B4465BB77AA7A0
:1002400019973887DFF7FEE79DD7BCC7C448E55844
:100250008668A7784008611802282338CCC9EDD9F0
:100260008EE9AFF9488969990AA92BB9F55AD44A98
:10027000B77A966A711A500A333A122AFDDBDCCB40
:10028000BFFB9EEB799B588B3BBB1AABA66C877C64
:10029000E44CC55C222C033C600C411CAEED8FFD90
:1002A000ECCDCDDD2AAD0BBD688D499D977EB66E38
:1002B000D55EF44E133E322E511E700E9FFFBEEFE0
:1002C000DDDFFCCF1BBF3AAF599F788F8891A981A2
:1002D000CAB1EBA10CD12DC14EF16FE18010A1008C
:1002E000C230E3200450254046706760B98398937C
:1002F000FBA3DAB33DC31CD37FE35EF3B1029012DC
:10030000F322D2323542145277625672EAB5CBA547
:10031000A89589856EF54FE52CD50DC5E234C3242B
:10032000A01481046674476424540544DBA7FAB71B
:100330009987B8975FE77EF71DC73CD7D326F2367B
:100340009106B01657667676154634564CD96DC967
:100350000EF92FE9C899E9898AB9ABA944586548CB
:1003600006782768C018E1088238A3287DCB5CDBBB
:100370003FEB1EFBF98BD89BBBAB9ABB754A545A1B
:10038000376A167AF10AD01AB32A923A2EFD0FED87
:100390006CDD4DCDAABD8BADE89DC98D267C076C6B
:1003A000645C454CA23C832CE01CC10C1FEF3EFF5B
:1003B0005DCF7CDF9BAFBABFD98FF89F176E367EBB
:1003C000554E745E932EB23ED10EF01E32042304BD
:1003D00019040704F203E403DA034261642076613E
:1003E0006C7565004B6579206E6F7420666F756E55
:1003F00064005265736F75726365206E6F74206D53
:100400006F756E74656400436F6D6D616E64206E10
:100410006F7420666F756E640041737365727469E2
:100420006F6E005465737420617373657274696FC5
:100430006E00537461636B20636F72727570740029
:10044000AA109010801068105E1044102D101B1020
:100450000B10F80FEE0FE00FCE0FC20FAC0F940F82
:10046000880F760F670F570F480F370F230F0F0FA7
:10047000FE0EEF0EE00EC80EBB0EA50E960E8A0EF7
:10048000660E480E2A0E170EFD0DE40DD00DAC0DB4
:10049000EE0F910D7E0D620D490D3A0D2C0D130DD1
:1004A000F60CDB0CCC0CBB0CA00C920C890C740C65
:1004B000670C2A0E520C3E0C2C0C1E0C050CE70B84
:1004C000D10BC00BAA0B9A0B8C0B700B610B4E0B54
:1004D0003B0B280B020BE70ACA0AB30A8C0A670A0D
:1004E000470A170AF109DB09AF099C098D096E0952
:1004F0005109400921090A09F308D908AB088D08F8
:1005000064084D082D081D080608DA07B907A0077A
:1005100086075E073A070C07E906D406C106B4064B
:10052000A30685066B0655063C0620060806F3055D
:10053000E205D305C305B1059E05830573055E0578
:1005400042054B6579207761732072656A65637433
:1005500065642062792073657276696365004B6516
:100560007920686173206265656E207265766F6BB5
:100570006564004B657920686173206578706972E5
:100580006564005265717569726564206B657920D8
:100590006E6F7420617661696C61626C65004F708A
:1005A00065726174696F6E2043616E63656C65642A
:1005B0000057726F6E67206D656469756D20747980
:1005C0007065004E6F206D656469756D20666F758E
:1005D0006E640051756F746120657863656564654C
:1005E000640052656D6F746520492F4F20657272EB
:1005F0006F720049732061206E616D6564207479AB
:1006000070652066696C65004E6F2058454E4958EC
:100610002073656D7320617661696C61626C650041
:100620004E6F7420612058454E4958206E616D65AB
:100630006420747970652066696C65005374727506
:100640006374757265206E6565647320636C6561A3
:100650006E696E67005374616C65204E4653206668
:10066000696C652068616E646C65004F70657261CD
:1006700074696F6E206E6F7720696E2070726F677D
:1006800072657373004F7065726174696F6E20617B
:100690006C726561647920696E2070726F67726533
:1006A0007373004E6F20726F75746520746F2068CD
:1006B0006F737400486F737420697320646F776E72
:1006C00000436F6E6E656374696F6E207265667548
:1006D00073656400436F6E6E656374696F6E20743A
:1006E000696D6564206F757400546F6F206D616E65
:1006F00079207265666572656E6365733A20636121
:100700006E6E6F742073706C6963650043616E6E0A
:100710006F742073656E64206166746572207472F4
:10072000616E73706F727420656E64706F696E7441
:100730002073687574646F776E005472616E7370A5
:100740006F727420656E64706F696E7420697320B7
:100750006E6F7420636F6E6E6563746564005472AF
:10076000616E73706F727420656E64706F696E7401
:1007700020697320616C726561647920636F6E6EAD
:100780006563746564004E6F2062756666657220ED
:10079000737061636520617661696C61626C65008C
:1007A000436F6E6E656374696F6E207265736574F6
:1007B000206279207065657200536F66747761728C
:1007C000652063617573656420636F6E6E65637425
:1007D000696F6E2061626F7274004E6574776F721C
:1007E0006B2064726F7070656420636F6E6E6563FA
:1007F00074696F6E2062656361757365206F662032
:100800007265736574004E6574776F726B206973DF
:1008100020756E726561636861626C65004E657417
:10082000776F726B20697320646F776E0043616E1F
:100830006E6F742061737369676E20726571756580
:1008400073746564206164647265737300416464E9
:100850007265737320616C726561647920696E20C2
:1008600075736500416464726573732066616D69B8
:100870006C79206E6F7420737570706F727465641C
:100880002062792070726F746F636F6C0050726FAA
:10089000746F636F6C2066616D696C79206E6F7424
:1008A00020737570706F72746564004F706572614B
:1008B00074696F6E206E6F7420737570706F7274D0
:1008C0006564206F6E207472616E73706F72742035
:1008D000656E64706F696E7400536F636B6574202E
:1008E00074797065206E6F7420737570706F727498
:1008F00065640050726F746F636F6C206E6F74204C
:10090000737570706F727465640050726F746F638A
:100910006F6C206E6F7420617661696C61626C65CA
:100920000050726F746F636F6C2077726F6E672008
:100930007479706520666F7220736F636B657400E5
:100940004D65737361676520746F6F206C6F6E67A0
:100950000044657374696E6174696F6E20616464CC
:100960007265737320726571756972656400536F87
:10097000636B6574206F7065726174696F6E206F50
:100980006E206E6F6E2D736F636B657400546F6FA6
:10099000206D616E79207573657273005374726592
:1009A000616D732070697065206572726F720049A5
:1009B0006E74657272757074656420737973746592
:1009C0006D2063616C6C2073686F756C6420626568
:1009D0002072657374617274656400496C6C65673C
:1009E000616C20627974652073657175656E6365ED
:1009F0000043616E6E6F74206578656320612073BB
:100A00006861726564206C696272617279206469E0
:100A1000726563746C7900417474656D7074696E8D
:100A20006720746F206C696E6B20696E20746F6F25
:100A3000206D616E7920736861726564206C6962F3
:100A4000726172696573002E6C69622073656374EC
:100A5000696F6E20696E20612E6F757420636F72EE
:100A600072757074656400416363657373696E6762
:100A7000206120636F7272757074656420736861A1
:100A8000726564206C6962726172790043616E20E4
:100A90006E6F74206163636573732061206E65659A
:100AA00064656420736861726564206C6962726158
:100AB00072790052656D6F7465206164647265734C
:100AC00073206368616E6765640046696C652064C5
:100AD000657363726970746F7220696E20626164FD
:100AE000207374617465004E616D65206E6F7420B3
:100AF000756E69717565206F6E206E6574776F72A3
:100B00006B0056616C756520746F6F206C61726745
:100B10006520666F7220646566696E656420646135
:100B200074612074797065004E6F74206120646177
:100B30007461206D6573736167650052465320735D
:100B400070656369666963206572726F72004D75C6
:100B50006C7469686F7020617474656D707465641D
:100B60000050726F746F636F6C206572726F7200E9
:100B7000436F6D6D756E69636174696F6E20657228
:100B8000726F72206F6E2073656E640053726D6FAA
:100B9000756E74206572726F72004164766572744E
:100BA000697365206572726F72004C696E6B2068A4
:100BB0006173206265656E20736576657265640099
:100BC0004F626A6563742069732072656D6F746526
:100BD000005061636B616765206E6F7420696E738E
:100BE00074616C6C6564004D616368696E65206951
:100BF00073206E6F74206F6E20746865206E65744C
:100C0000776F726B004F7574206F66207374726516
:100C1000616D73207265736F7572636573005469DB
:100C20006D65722065787069726564004E6F20642E
:100C300061746120617661696C61626C6500446514
:100C400076696365206E6F742061207374726561CC
:100C50006D0042616420666F6E742066696C652069
:100C6000666F726D617400496E76616C69642073A1
:100C70006C6F7400496E76616C6964207265717581
:100C800065737420636F6465004E6F20616E6F64DE
:100C9000650045786368616E67652066756C6C00F9
:100CA000496E76616C696420726571756573742034
:100CB00064657363726970746F7200496E76616CFB
:100CC00069642065786368616E6765004C65766568
:100CD0006C20322068616C746564004E6F20435351
:100CE00049207374727563747572652061766169E9
:100CF0006C61626C650050726F746F636F6C20641E
:100D00007269766572206E6F7420617474616368B5
:100D10006564004C696E6B206E756D626572206F44
:100D20007574206F662072616E6765004C6576652C
:100D30006C2033207265736574004C6576656C2099
:100D4000332068616C746564004C6576656C203294
:100D5000206E6F742073796E6368726F6E697A6546
:100D600064004368616E6E656C206E756D626572BD
:100D7000206F7574206F662072616E67650049642C
:100D8000656E7469666965722072656D6F766564FB
:100D9000004E6F206D657373616765206F66206418
:100DA000657369726564207479706500546F6F2093
:100DB0006D616E792073796D626F6C6963206C6907
:100DC0006E6B7320656E636F756E7465726564001B
:100DD0004469726563746F7279206E6F7420656DFB
:100DE0007074790046756E6374696F6E206E6F74EF
:100DF00020696D706C656D656E746564004E6F2062
:100E00007265636F7264206C6F636B7320617661CF
:100E1000696C61626C650046696C65206E616D6528
:100E200020746F6F206C6F6E67005265736F757200
:100E3000636520646561646C6F636B20776F756CAC
:100E400064206F63637572004D617468207265730E
:100E5000756C74206E6F7420726570726573656E48
:100E60007461626C65004D61746820617267756DB4
:100E7000656E74206F7574206F6620646F6D616994
:100E80006E206F662066756E630042726F6B656ED2
:100E9000207069706500546F6F206D616E79206CF1
:100EA000696E6B7300526561642D6F6E6C7920669C
:100EB000696C652073797374656D00496C6C656746
:100EC000616C207365656B004E6F207370616365A4
:100ED000206C656674206F6E2064657669636500BA
:100EE00046696C6520746F6F206C61726765005491
:100EF0006578742066696C652062757379004E6F41
:100F00007420612074797065777269746572005419
:100F10006F6F206D616E79206F70656E2066696CF1
:100F200065730046696C65207461626C65206F763C
:100F30006572666C6F7700496E76616C69642061DA
:100F40007267756D656E7400497320612064697203
:100F50006563746F7279004E6F74206120646972EA
:100F60006563746F7279004E6F20737563682064D7
:100F700065766963650043726F73732D6465766986
:100F80006365206C696E6B0046696C6520657869E5
:100F900073747300446576696365206F72207265AF
:100FA000736F75726365206275737900426C6F634D
:100FB0006B20646576696365207265717569726519
:100FC00064004261642061646472657373005065FB
:100FD000726D697373696F6E2064656E6965640014
:100FE0004F7574206F66206D656D6F727900547255
:100FF0007920616761696E004E6F206368696C6477
:101000002070726F6365737365730042616420665C
:10101000696C65206E756D62657200457865632048
:10102000666F726D6174206572726F7200417267D3
:10103000756D656E74206C69737420746F6F206CAD
:101040006F6E67004E6F2073756368206465766904
:101050006365206F72206164647265737300492F49
:101060004F206572726F7200496E7465727275708E
:101070007465642073797374656D2063616C6C00B2
:101080004E6F20737563682070726F6365737300B1
:101090004E6F20737563682066696C65206F7220DF
:1010A0006469726563746F7279004F706572617400
:1010B000696F6E206E6F74207065726D69747465EF
:1010C00064005265626F6F74696E672E2E2E005039
:1010D000616E6963210D0A00756E6B6E6F776E002D
:1010E000636F6E6669673A207379732D636F6E66FE
:1010F00069672D737472696E673D310D0A20202077
:101100002020202020666174616C2D6173736572EC
:10111000743D310D0A20202020202020206173738F
:101120006572743D310D0A2020202020202020648B
:10113000656275673D310D0A202020202020202087
:10114000707265656D70746976652D73636865642A
:10115000756C65723D300D0A202020202020202053
:1011600070726F66696C652D737461636B3D310DD0
:101170000A202020202020202073797374656D2D93
:101180007469636B2D6672657175656E63793D3147
:1011900030300D0A00454153534552543A2F686F81
:1011A0006D652F6572696B2F776F726B73706163FA
:1011B000652F73696D62612F73696D62612F737240
:1011C000632F6B65726E656C2F746872642E633A60
:1011D0003838383A204153534552543A20286572E2
:1011E00072203D3D20312920004541535345525442
:1011F0003A2F686F6D652F6572696B2F776F726B11
:1012000073706163652F73696D62612F73696D62BD
:10121000612F7372632F6B65726E656C2F746872C9
:10122000642E633A3835393A204153534552543A83
:101230002028746872645F702D3E74696D65725FFA
:1012400070203D3D202828766F6964202A293029A6
:10125000292000454153534552543A2F686F6D651C
:101260002F6572696B2F776F726B73706163652F77
:1012700073696D62612F73696D62612F7372632F81
:101280006B65726E656C2F746872642E633A3636C5
:10129000373A204153534552543A202872657320FF
:1012A0003D3D202D3131302920002532307320255D
:1012B00031306625250D0A000D0A2020202020202F
:1012C000202020202020202020204E414D4520207D
:1012D000202020202020204350550D0A20202020AF
:1012E0002020202020202020202020202069727112
:1012F000202531306625250D0A0055736167653A52
:10130000207365745F706572696F645F6D73203CF4
:101310006D696C6C697365636F6E64733E0D0A0072
:1013200055736167653A207365745F7072696E7496
:10133000203C312F303E0D0A0045535441434B3A77
:101340002F686F6D652F6572696B2F776F726B7386
:10135000706163652F73696D62612F73696D62617E
:101360002F7372632F6B65726E656C2F7468726475
:101370002E633A3232393A204153534552543A207F
:10138000286F75745F702D3E737461636B5F6C6F53
:10139000775F6D61676963203D3D20544852445F2B
:1013A000535441434B5F4C4F575F4D41474943298D
:1013B0002000010409040F04190421040D0A00256A
:1013C000730025386C752000253034752D2530329A
:1013D000752D2530327520253032753A253032751D
:1013E000200025733A206469726563746F727920F6
:1013F0006E6F7420666F756E640D0A002573257319
:10140000257300286E756C6C29002F834C002F8388
:101410004B002F834A002F8349002F8348002F83DE
:1014200047002F8346002F8345002F8344002F83DE
:1014300043002F82CE002F82CD002F82CC002F823E
:10144000CB002F82A1002F82A0002F8281002F824B
:1014500080002F827F002F827E002F826F002F82DC
:101460006E002F826D002F826C002F826B002F8206
:101470006A002F8269002F8177002F8168002F81F9
:1014800067002F80D0002F80CF002F80CE002F80CC
:101490009B002F809A002F8099002F8055002F806D
:1014A00054002F80530083B70083B60083B10083BC
:1014B000B00083AF0083AE0083AD0083AC0083AB8C
:1014C0000083AA0083A90083A80083A70083A60045
:1014D00083A50083A40083A10083A000839F0083D1
:1014E0009E00839D00838F00838E00838D00838305
:1014F00000838200838100838000837F00837C00DF
:10150000837B0083680083670083660083650083B4
:101510006400836300836200836100836000835FF3
:1015200000835A00835900835800835700833A0090
:101530008339008338008337008335008334008388
:101540003300833200831E00831D00831C00831937
:1015500000831100831000830600830500830400CC
:1015600083032573008302008301252D3533730027
:1015700082FF0082FE0082FD0082FC25730082FB58
:101580000082FA25730082F90082F825751F257301
:101590000082F70082F625730082F50082F425733D
:1015A0000082F30082F2252D3239731F252D377307
:1015B0001F252D37731F2539731F2534731F2535BC
:1015C000730082F10082F02530386C781F253038A6
:1015D0006C780082EF0082EE0082ED0082EC0082E7
:1015E000EB0082EA0082E80082E60082E50082E405
:1015F0000082E30082E20082E10082E00082DF00FC
:1016000082DE0082D50082D40082D30082D20082A2
:10161000C30082C20082C10082C00082BF0082BDBE
:1016200025730082BC25750082BB25730082B9003A
:1016300082B8256C640082B70082B625730082B53B
:101640000082B425640082B3253032780082B2254E
:1016500034750082B12534750082B0256C64008237
:10166000AF252D3430730082AE00829C00829B0037
:10167000829A008299008298008297008296257350
:1016800000829525730082940082932573008292D4
:1016900000828E00828D00828C008286008285000E
:1016A000828400828200827D00827B0082750082BB
:1016B00074008273008272008271253230731F259C
:1016C0003132731F2535641F2534751F253131755F
:1016D0001F2536641F2536641F253032780082703E
:1016E0000082670082662553008264008263256C55
:1016F000751F2530336C7500826200826100826044
:1017000000825F0082390082380082370082360012
:1017100082350082340081BE0081760081750081AF
:101720007400817300817200817100816D00816A93
:10173000253032781F253032781F253032781F252A
:101740003032781F253032781F253032781F25300F
:1017500032781F253032781F253973008169008166
:101760006600816425641F257300816325661F253B
:1017700066008162257300816125730081350081D7
:101780003400813300811A0081190081180081170B
:101790000081160081150081140081130080C100B2
:1017A00080BD0080B90080B725780080B625303232
:1017B000781F253032780080B50080B40080B300F7
:1017C00080B2253032780080B1253032780080B088
:1017D0000080AF0080980080960080950080922560
:1017E0007300809100809000808F00808E00808D3B
:1017F000257300808C257300808B00806925630031
:101800008060008052008049257300804825730065
:101810008047008046252D3136731F2530327800F1
:101820008045008044008043257300804200802B67
:1018300000802A0080290080280080270080260060
:1018400080240080230080210000FD377A585A0050
:101850000004E6D6B4460200210116000000742FF1
:10186000E5A3E1637C1D705D0011880707E1C35C9F
:1018700092CE272DAC23DAC44724B0B62B8B33E9A4
:10188000DF876A1E442DF381E2A18A42A1E47563D9
:10189000F8AB1D6D87F5D0D829CABE7F786950DBBB
:1018A000AD8BC54242B3E5B673711E38F3D5F8BBB4
:1018B0007F08EF6AF647542815E4E48E67F35DACC1
:1018C000B59F79BCD746DD306ACDF9029DAA8A0260
:1018D0009D507AE11767127491FA96719272A599E8
:1018E00050F9C141CD6AA627C63E8D1D48903B18D0
:1018F0005C4AE581C9087D04F1C260E99668EF336E
:10190000E2477321FA7C3A828B6B975003A322BD86
:10191000529E49148188B928B3D15DD5CFCF583BA9
:1019200036E27D45BE9E5B26653AD1DBF72EC59338
:10193000080816D27A58D0254E972827AA41ACF02D
:1019400037EEE9C422A7C034DD68FE39CBA2D0C788
:10195000AEF474807AE9DF505CF55031FC54000A33
:101960008AA855C478252BEE198CD350415433AE38
:10197000E2F2932503A92E1CE28EA743E7C549A2F4
:10198000496ABEA6D7A25B7F9FAEC5FBDEB91EC566
:101990003F4D128D2E18D173262E6151730FCACC74
:1019A0005F61A16CEA128EABB992892C9244F9570F
:1019B000872D993BCE41E7082CD3F4FD2C007A6E9D
:1019C00060F28740FD861F2343B6EE79DDC2FDA19C
:1019D0000E36D0E53B98292AF909034F3104495ABC
:1019E000FEA2CC1EC13A897734052D5C1A8690EA96
:1019F00010699C2FF5F4E112E0AC5255537EB959B1
:101A0000E678BA93D37B5E15D4CCD24ABD488B9F7F
:101A1000A9A3F666F84BE48535D73B9055E72C78BB
:101A20006BFEAE2B7A50604C4F651A0BA6F5648E98
:101A3000C75F798E2D1BB44244A50518BBF0759E77
:101A400000CA96851BA3DEC2F91D7F398BB84DB83D
:101A5000FAB5E1CA14AD25D5219FFF0A58C193C735
:101A600017DFE73FEA8505F2FF2A0DD4998A9DC466
:101A70002A16259DCBC3800DBBF5A5021E3400861A
:101A8000C133F510FCD95047EABAC156CA8043ACFD
:101A9000FCFDE0E682BA6D0F34428A7B03FFDF1F54
:101AA000B70523993F313C6B832CB774FD2CC65886
:101AB00099CACB49593065E44E82E0F42E416F5209
:101AC00018C32E5423FE4D5810D40343E59A379083
:101AD0000E29C113233D53E1E5828B34B69EE34BBF
:101AE000829B723BFBF53640AE1138AE5D09B4DA2D
:101AF000593F5CA3030C8D500918C223CE37E92E41
:101B00001BCA4C0E02D8D7FA414F7D957D747728B9
:101B10001387096A6930A15AA8ABD4292BD53E4551
:101B2000E8965B50A9246FF21FAFF435351D95CDB3
:101B30008113AB6DBFD7523590CD23B42B3F057DBC
:101B40003806BD7DB2D3BE3B49ADB4D6838451E2E5
:101B500075B6D2681FDCFA90BF848B45C2461BF273
:101B6000223C71A45CAAE36282089C277032CF29D0
:101B700088C0A3F14930ED26CD752F94EC15E1080E
:101B8000B981581BA43059B9F07A77EC5683266492
:101B900009B7EB7676C2689FFBF3385BD4FE9BD522
:101BA0004E8E3357D93C537BD4DC8B055BD15557D4
:101BB000E7DB9613BA678A3AB4F4670824FCD0C40A
:101BC000053768C35DD1BE8D7A2E117BD9D63D6FA6
:101BD000578E19FAF8DD3334F7A2AEEA268F36AA0B
:101BE000FCBBD5A5B4DB1745FFF37EA9E23FDF328E
:101BF000B2105750A5178597BE007852C9F09A7B4E
:101C0000B807449C1AE19290711515E4A035C2877B
:101C1000BE49FD773D16645A25A8F40FB1A127519E
:101C20008BA3ED7C9F9660F04993565D5E8F7F4F4E
:101C3000DFC85622696DB24170146FE36680644B51
:101C4000CF587509237F6F087D0D6C9DBEEA9BE917
:101C50004042CF706BE4605071F4613C6687B51010
:101C60002388B82A1D3E2D13C276EE7B2D59ACF782
:101C7000D4A2A641445506FD2CC270A2741CFA31B0
:101C800014EB6572DBE85B3CE925B7FED9AF29A907
:101C9000454D5E7F1D47997AFD6CED14EB32BB42DA
:101CA000D120F3FE83701B08AD5064593E8BB1AD5B
:101CB000BF47E4714D6CA48C14E93A415FA92E54DE
:101CC000AFBE4A80CEEA65B3C6AC0496F3E14CD908
:101CD000A505F369A286FE1D68D087BB32B3B1E2C9
:101CE000A251790AC8D0EDF8AB0AFD5527686F1BE1
:101CF0001E864883C69D8C2DB07C4E61A271BD2787
:101D000061348FEAAA45D40B5031BA34B96DDD8005
:101D1000559CC0F8D39DEE5911B812EB5C7FEF8350
:101D2000BDB5B3064D7D801EB72EE2DDFADA0C6438
:101D3000D785D40C6942377A4B83FF665BB23AD2BF
:101D40006C5FC5D7A24DD2D79FB0027E23B4767404
:101D500050EACF294B4973F7FA82D163CE7CF8D190
:101D60006BEC0C3BEB0C7F0F1986594A2CA46B07CC
:101D70001027A5151D7206485946A95BC81CF927EE
:101D800097A7D66C09D3FCE9267837D838D2F61C49
:101D900075804FF8FB426654FED1717ACFA45C7116
:101DA000EF8497209EFC3779BE8DCCB0112F863DF5
:101DB000965B4E2D051E8EB9F958F16580956B4DD9
:101DC0001F16D6E990496FD89D6573F3BBEEB69B9D
:101DD0007F25A749C85D690BABADFE88397F94703C
:101DE0000E1329E794B06F418930049FF4E8719D88
:101DF0000A316583826A2F335C2664528C9EDD9B98
:101E0000AFC0EAC5A7BF57F91F2D4C32EFEF92FEC6
:101E10003E4DB02439ABEB93CB59C2F27EE2CF7486
:101E2000F686E129D7EE3BC2C0C61AAA1882B808C6
:101E3000142C2ECB3F7E443A9CBFFD95CF07FC81EE
:101E40000171863F12E31BA1605AC89A2B8C231B99
:101E50007AF5B8D930A57E076CC7FE0DE28FF981FF
:101E6000812EEAF2394A1346C4F8BACD61EFDDAFEC
:101E7000042074B0A7D1173BA9E74C34F2C45D230A
:101E80005341DB831B830ED44BAE571A7DDBF01C12
:101E90004E0CC1B3E4FBFCCE80C106A97BD0BABD19
:101EA000DB48747F28B46C3DC4DA607D5FFD814CF3
:101EB00023630FED0B32654A40A9E3F12F328C43C7
:101EC000CC8E5FB8AFE0F3413564B5BF11F98A86B7
:101ED000B75D5A02BB029A8B4C46715BAB96682D7C
:101EE000DF028D88ABF49032F83F52943982A2EB36
:101EF000B792EF525780FC2B8224E3AE9A307243A4
:101F0000BAE5DB9AF72B8907B34E9599B11AE52408
:101F100063A63CDE89ED590F5080966351F7FF9A16
:101F2000196A342DC24B862E301E21E52DCC9F7AA6
:101F3000CE734E28913152E54ED1CE3C865A1B03CA
:101F4000DB288C99A0EDA1791473B5F6E415AAA14C
:101F5000F1923E19536CB20D4AC4848EEBDFADFA98
:101F6000E7A29E4D189F4174DCCAB3486A2DF568FC
:101F70001D22EE6F2144952B214BB4952FD9F1EC06
:101F8000A49C2C4CF868F8EB5B75EDBCF2DFEE031B
:101F9000C7DA33A5BB3D3A3E34CC52C92315EB9D7D
:101FA0006E393FB1FEC4B2678BCEFE35A93B3B9E76
:101FB000C385D7873348D8E7304A2516864F13BCE8
:101FC000A92D15C793EC209B84BADCE2AF2DA3A406
:101FD00038338BA050537FD3332383F1C63CD19643
:101FE000EA415B820E55ADEDEC40F11DDEB766C4F3
:101FF00005F5B630B0435FB27EA8CACB6E03AADB4C
:10200000E24021A89ECF187ADD18F650BF22A7948F
:102010007001505809D52D6835D6A89AA80FF684B6
:10202000471ABA9AB7A3F4EBF8CAA60D458B69E52F
:10203000A2BEF76AE611A723CFE5C7809B51513AAC
:102040006DFB8A9E1A3A1EEC75E1F02F82F574C87A
:1020500020B3E449FB3E0977CEAC43AB7E243C225F
:102060005B6F96A01C79CF4CA80309087865791797
:102070007312C4DC4EB5DC876E60D91B2C3533E996
:10208000BB7CBCA5D3818C5FD568BD2395664C7E97
:102090007134A25A72D4AB719317806BCD67CCE3C5
:1020A000BB5070AABB8F41B35DBEED7AAEAC3FCAE8
:1020B000C7DB9D371133AEC7FB592CDC66B65356D0
:1020C000E0D316C2793DCB1601F6D54968CF62360A
:1020D000FCCA5D07467624EA4BE1CD69F629E52E78
:1020E00084AB72FA4F30DC5E8EA241C376CF5611BC
:1020F000627FD83AE100E3831150FC88194BC08B12
:10210000E5FD4018A00640BFEE3E0143F95DDB3B14
:1021100098FBCE3264C3CDCDBC1DCB3C9523EE02E3
:10212000FEAD1632C9BEA8D2011BEC5E3BB2B5783B
:10213000545ED8BCE1226D0AC705BA70F00F6D8DF0
:102140009DCAC155358FD345617E250A45EFFC20D8
:10215000E6CEF93B777BB4532FB703937FE09D0224
:1021600087D66D2E7B98E8AD25AA4977736EAD00B2
:1021700083254BFC10C4052966D95AC53C89A6C9DC
:1021800061008F871A3633BE1C18E255937F429C3C
:102190005E61B8250000DEBBC7F0083586D7A166B2
:1021A000D1E20552E781867A2BE09E1414A1519268
:1021B00028B7EBD6E486E428FAFFDF8A030C9259AD
:1021C0002A3062E48071071875CCEA37BD83AA9F74
:1021D000E7AA3A65510B5F0ECA2724054BCAC257BE
:1021E0002F0D57AF900EABC2A7E34104CE5A6AA0A1
:1021F0003E4A91F2AFA8DD2F2877C8F50DD7D58CD0
:1022000098F10248D0538671864D080697A94D165D
:102210009BAA849C5AB2FFDC1F6FF48BECCA63C587
:10222000D45BBFA45E331C57705958A8E8080381DB
:1022300034EF16DFF5720C4808B6FD9737DC1F9CAB
:102240000C63067584EA0335D5C8D661B96B2EB721
:102250007762BE4D595F32798315760E0773D1B719
:10226000072E60E2C7E174529063FF9FED5C7476C5
:10227000F412D733E1F1F7B82E35A96E6DC1C5E27E
:1022800095778C0A7E327E779654ED67617493E37E
:1022900098DE80BC4BCD9C0D41B504E156373279B8
:1022A0003D470CE0911050076CFBD4269B5113EA7C
:1022B0005B3298859E7DA0AD0D5CB35B10237D35B0
:1022C000D549AC4376366F6A80303490F998DCBCDF
:1022D0009204C989D0A2ECD03B64B61466A614C39C
:1022E00088E7E31A1F84AD87EF957A21AC79BEF7B2
:1022F0005CDA278A1EC18ADAB38D38DF97E93BDDC5
:10230000EA8A01A1BB1869CE0B602890701A6D286B
:1023100027E947A89C646045B4CAB0F0E4B26B4BAF
:1023200038345F80D65A1F9401F841A2C4F1E2E527
:10233000995BE406854B813D0FB1B627DD2F1EC3A7
:10234000FECD77A833C4D7A0D09F4D05EF9D13666F
:1023500019DCC61792F60F919CC16CC56DFEBDB21B
:1023600028DB2EE3D46D48933ADE2FB4CCE011BACB
:10237000DABB5E642DC01DE81816C530496FFB54EA
:1023800034E6DB2145C61F03B2C49AF3E2451A3B8B
:10239000A55AC4E5CFC7A4F46183FDE30DB0B5072A
:1023A000AF3A2402DFF296E9F30C1E5ED64BE48FBF
:1023B0003239CA936FDD58CD6DD28486FEE34D303D
:1023C000672E9EBF22DD6E32038D079F94135ED46D
:1023D00067DAA8D3DEF120C7D6CD7C51B012322403
:1023E0008B4F28B8986281E9A482A4F01910DAE52D
:1023F000BF3F478DCC29F2E5F562F1857C1E2FA108
:10240000760F79E375C1DC672A7846013CDB4D31F4
:10241000141BCBEFC7C874807A44D9800D3CE3CA43
:1024200062E4EF1F1D4766480A5D9AD848EAED64EA
:1024300019DEB7752A52BC2CBD60B9CB0B913B4E4F
:102440002895D87580ADADC153E85A363ED03F4B84
:102450006C3BFF67DA464A3A8C4D518A4859DCEBAF
:10246000F8B20BA4A1B60F578AD9D46327DAD4D314
:10247000E326CF67B4C4C117E6AD3F21D117A18DC4
:1024800068CB4F27B6A37E9B1161C1375B0E785591
:102490003AE7B596CEDAAE7353D5437EB8DE5240F6
:1024A0008CA8C9CB9C7824075996808BE309BD186A
:1024B000FBD041844CFFB33EB97C4EEBF841B37086
:1024C0004A6551CFAE7DEBB1875E762C044732DE94
:1024D0006B29B8ED8E1B95A5CF70F9291A9179F467
:1024E000E087F4B4E0FDBD49B6E14D3C8B1DCE1351
:1024F000E010C49343820A780E6B06A7543CE1981F
:10250000CAEC9D90932F0B67BDD59A144E27C286B7
:10251000E05242A0F9E34BAF86791EACED72ACB449
:1025200058E0957431F770A30D5F8EF5CC8E816401
:10253000A749F9219309F1CD7B4105378DE80AE3DD
:10254000F3F39F93693A3DD603E2DC2DA36A1AC7E1
:10255000CB498D00FD679C935DB424871F2A3FAB58
:10256000E315E96F4360C0A6CB497E423DB712ED4B
:102570006F1127438B1BC6DACEBF8163D2AD059C9A
:102580002F806B651F7C37DCFCB917525E2FA5A529
:10259000F6525B63CFBC4FF3EA63175EEF623ED344
:1025A000784D354619A8EE180A81F5482C954C50FF
:1025B0006D6E240A911D7A81D245B2EA82C784AA3F
:1025C000C6FDDF648BD480537EB2707F6278451580
:1025D0009F7B5B266E47F06FDDFA84DFF9B7BA9414
:1025E000FA22FDAA829C7E42BD1ED409AA149165DE
:1025F000B03CA94AB1E1D8C03D0EEA6AA048DB9FD1
:10260000C55440E1426FEBD16384E6C29A0443AB08
:10261000E8C71880FFA3C77AEE35FEE80E605AB20D
:10262000B215C4A335D370D12AB7243C4150C4C5D8
:10263000827AB1BED62205DAB8BBBB63569CA3DB57
:10264000BBA33F5EB88E8F4CD75AC09896CEC605B6
:10265000AF9801690490D20101B7A610631BBB6B50
:10266000D92999B946361EE1485CCA598996ACA861
:10267000909C592C04CEE65020FC724EDC53B8617D
:10268000ABF25E76833FA622ECE6B70C8AB3C83B7A
:10269000D9C429D9AF3C2322B727F0E8B21F4B0297
:1026A0002D123BF9882F6DD793125F23423FA4F47C
:1026B000CE4A48479357FD69486961C2D4E9E7DAD1
:1026C000F0A42DC1F52B3E00B92F091C9167085EBF
:1026D00089992817EA8BB093A2E166B185DF8FD57F
:1026E000540641F177E987003A787A996799789B9F
:1026F000F0380800B01E8DAE393998A31D974622D8
:1027000058952A2A2D602FFDD503562BBEEE6F5FFC
:10271000E82DFCB11B0513FEF05038628F6F0E637D
:10272000EE9FFC6733B3C0F2C14538B510BF18B790
:10273000EA100A2B8B6FED5AB14C4F49D021A99862
:102740006D877D5A4B38447D8DFD90B4C239C701E9
:102750007CBA44FA4E6890B20C09AB428B50CD6BF8
:102760006150A782C32350532916D4E12E348E0D15
:102770009223B2A1C236A95614D56971063FFE85CF
:102780007861E7326626E1440A6063C9E80280B9ED
:10279000B69D86D99EEA49B7FCB54D68437FC041D6
:1027A000CC5C5433BAB3524C9DD832B5FB696CB291
:1027B000AF81FDE3EF061BBF95B27556304635CAB3
:1027C00016BFBB9B788DC6224F963503E9945942BC
:1027D000F117B27AF66BCBE8657E2792450A55571A
:1027E00017F12D244C9633728AC339C33D107F33C1
:1027F00029CC9BCAA427718DBCD38DF38FB8E56F0C
:1028000051D419F92FA8E0B69F616D7D0AFEA6B1DB
:1028100036ABA2CF089EEA0D1CFA6CB0E042C9911B
:10282000BC1CBB0208C99DC3FDDAE169E755EEAEE9
:10283000B94FBC9FBAD69F969F71D8B120AB98FF75
:1028400025B90B7D727921608CEDE28B60613CA033
:10285000CF031E8C8E5A88D89811A32593F30FBEF0
:1028600061F4503005789F5205B5393F41664720E5
:1028700078F06D71F99581BE0F128C0360294105C6
:10288000F883122E7DC1D49DDA6CAFA5BF6DA12F48
:10289000BA05CC3E5C8A0081E62E6607F13B4D0707
:1028A0008F9DB3B8539F02673B68BD103AF29F14E7
:1028B0000ABFD1A7838F3536B771F2EDAFF2B741BA
:1028C000A8B0E68930B9676CCA2EC6CD98BAB3C431
:1028D00014C02269F700EF1400B91D4CEF1C79C930
:1028E000F816556ECD80C3F91F85C119C22E7469C3
:1028F000608406D7EF61745F0F40039D6237350334
:102900002B2D044DE7F6F78A7CCCE23107C6CCCB01
:102910008DBB63B34A24051AD387177D49ED421452
:10292000A16C1282EAA8EE18DC8D3E5B89B7E775D0
:1029300078B50CA88582082DDEC36313085FB24505
:10294000013829F494E7174E08DB524C813DC0361C
:10295000C339DEEB1A96E5817F5A875AA3BFCBE2D3
:102960008FD778443B0843DFFF2C0D7F3063487FCF
:102970003499B3FB46E76310D3D4626E52B59230FC
:10298000C000A4CA91B1FC1133AE9363A084FE735E
:102990002AB2EFE8489BF0121C0D3B7CEC764144D8
:1029A0003B5BD9E856F805792A785B3817BE1341A6
:1029B000A439CA8C5F444858741840D77734B4B8E7
:1029C000A03EAF2DA18A5AC098B56015A7362746FC
:1029D000D3FEB236B90A47DDDFA1947A9335E3A47A
:1029E000B5871B148A4D38AA6B451AA4C7E7365120
:1029F000B4F716FF920E0F2397880D632DB483C68C
:102A00006DAC1AB770E0AA08707BD78EBEF22D9914
:102A1000C57FEE929A96463670D4F3B334E2D8B8B6
:102A20003A3407804DB900FFCDCF52312A95DFE10E
:102A300076FAC0890FD8C7A1633E89D0D6AC3AB226
:102A40008AA0E4999BACF1F32618647A38011A9AAB
:102A5000BF5260E01258641722E36E4B5DB6034923
:102A6000AAB80EA4F22794091D060D5A696A6D32A0
:102A70004E5BB0CC1751273FC3CC3BC41C66FFE074
:102A80003B4338D953D42AD02DB84C9E7E6F4CFA94
:102A9000E59E0889795F3AF1F8CA5B5415C3BF9483
:102AA00029D71843F8EFE0765C74F272A4533FB272
:102AB000751264FCC045B4F9BBE4E9AAC6556FA819
:102AC000D8A6D6B5482EE0D4CB7EE2BAC13C5FD3BF
:102AD0005E1D8CF0DF3B4865511B5907494423C2FA
:102AE000607890A09E45E0A214975E1265AC51BD3F
:102AF000D3D6411CC12D5DDDBA2E077089AFDB092D
:102B0000A23BAF328B8A1E92784658ED5742B8F9F5
:102B1000D5E142BAA1EC45C387946BC61E8DD5930F
:102B2000B2AAE1D9558FBBF0C3138E8996E930154F
:102B3000FE5B52AC30AC2CE0A2DA76F1CC29F38407
:102B40003780B3B5A53096AB2E587F9282463C565F
:102B50008A3EB4E810C220BA4F1086641CB6629D4B
:102B6000C0C495A1F283C5FC7438FC57A5EAD24BCA
:102B70003DC71D3785803A22E44DDEDEEDFFF78C40
:102B80003E1E7D48A17F65F68120695BA0CA2D5954
:102B9000024CB97F37655B2EB8BC70A1DDD579F8E2
:102BA0009342A3A2C771A472104699EB5FCE69301D
:102BB00005C3501062E68A335BB84DEC608E5175E8
:102BC00075C592A64C24E363EEF70C6D95942BED3E
:102BD000050439D39CBB909D93DA7B30AD42B08421
:102BE000159BAB4517B16DD5D462248DDC3C6C30A0
:102BF00051F8FF5AA47A29378C54FD85F521C0126B
:102C0000AA3DE9476D4F03687457198F3DCF018B7B
:102C10001A1D13CB11BB16457635BA56B9760EDCA4
:102C2000C591AE50E8DA7CBC7682526463DF7B806B
:102C3000893E46AA4DA670F986A4E141B85A42C120
:102C4000427993DE14A644A79634751F2258A6A78E
:102C5000256EC9481CCBB9E5BBEA68EBBAB5479508
:102C600064FE4C078D5BBC7A129E7BF4FFB03A2861
:102C700060A766838C8BD684F48C239AD20C25A60D
:102C8000E43EBC94953B6F707DAFFF72377E5F2F43
:102C90002A225170A1CD53C0AE6E5307FAA40C1B6B
:102CA000D59F08A9338EA233AED79199CCA54CD32A
:102CB000FFD73B092E1151EA552442F33F7BC7A6AB
:102CC000E19714FDF452281277B339E5C387C03970
:102CD000638D8BF8320EAD0D3133ABBC261EA85D73
:102CE000C3E58B62AB0D25EC6733C701EFE6FB8ACA
:102CF000176FC5DB34281BA03D6E98D6BAAC92E6A0
:102D00001D1B11EDAADD7E31A8390D7EE4397870E6
:102D1000E7F23D74D04715CD39F11F8207E68432C2
:102D2000ABCB15386A519A02C63B13EBA0D70A0504
:102D30009F7D49129D655EC378E80EBD8AEB686C85
:102D400068A480FD548CAAA7732748C444C4914545
:102D50009323EADC2B04A0510CE5BA8D7422A8B1B0
:102D60004B6E39AC33FD77C5D6A23EFE12BB544C38
:102D70008D91D687CEFD09502D0E456328A7BBD572
:102D800038765B2E99305015B706013AA45371621C
:102D90003765C34C2174665F7B6E7C70CC2058090C
:102DA000FE8E766877EA4C60405162CA0073AD527D
:102DB000BA2F932ABF3250A364851A3AFDCF5663C7
:102DC000AB11CFF6A532626C2DB2112845B797C072
:102DD00033E1E755E45696ED3EE4C996170C852B92
:102DE00027A0B4D7A1C911F12AA45061D6C0DD36FD
:102DF0007AB77DE02108015942431996F20407840D
:102E0000A6909416BF9A721E3DCA1BD22FCBC1AAA0
:102E10000271DC37933ABCBCE50AAAE23B5792D177
:102E2000E22353110B7824175AC545DDD627F2E962
:102E3000F8D42419714A8822738AF43D0780E94A3C
:102E4000F1B2F7799CA952C63C0C15E2257C7806B4
:102E5000C516F008F54997B748928F32FC8D5CBBD8
:102E6000851224D4183655286FCAF055AFA75707D6
:102E700073BC248E15392AD767706C51E5F09366C0
:102E80002748D8CA63542FB774CB00393D67571809
:102E900043801EFF1531D0A55944C2E077FF26C2FA
:102EA0004B6828D63A3E1AE50072CDB060442FA296
:102EB000056B7F168318267D1A56864A1024123811
:102EC000D27F3304D66BA7F826C9C77C2B4A4BC9DF
:102ED000017932AFC8D1D6E14DC4D53AE399CF27B5
:102EE000C3F3F9D1387B0F4450AD5BCF81D9702843
:102EF00023B6954AA3744B1ABF4416C636FD986A8A
:102F0000285B676E2F91A4A176299C3B474C361114
:102F1000B60D3497C2323DA862A771CC795D1D6BA6
:102F2000CC81222CCE913DE5D07A8CA909C23E4FAE
:102F300091FAE20041CE671288284958FCBC8FB54F
:102F400092452E5D012F8CBD6304575F428F1BBEDF
:102F5000EDB5A82BA479F0708567F51AB2CD875727
:102F60002FD23254A54B9A7F93DFCEE783153FE3F0
:102F70002797BCF84F91AF7F143DD9451553942A3C
:102F80004F3923DE398BD1CF443B1A9B3F378DF22B
:102F9000FABAD6E78EFA61890C83F90D25A8CF908D
:102FA00031361CAE4DD7A868453B2D75B17823ACA2
:102FB000A535989C75FBF1058C845C8BCB4F8EF30B
:102FC0006042D96446EBB8156230F24D0644B12236
:102FD00012BE6407EAD69D77B7B03DD033AF07374E
:102FE00069FDA9D8BECAA0A6BAB5995DD76848A59B
:102FF0006699BBFE291B985BB52848B9A5BDA32BD4
:103000008D65E662EDAB3C9715F23CF3E2C68DC7E9
:10301000A14B43A5760AC4F91D2AA1E11607D4C421
:1030200071416B2D36823DCBCDB98722C7B7B4969F
:103030009611DB08F52F033C766B52161C33CF71CB
:10304000FF17BF3743BE3495EAE5B59C960D7EE188
:10305000A6E75C63F4CE4CB1FDC4B021B9B91E53F0
:10306000DA184262E9BCBC84769E763801D087E1EA
:1030700002EEBC6C4213A5B23439F8FDACC819BAE3
:10308000B62E34076AF89480525D59A2F69A979446
:1030900092B4F0B0FBEF49D80B26ADE0C38767359B
:1030A000A50264D193337AEB58A3121BE6108E1E4F
:1030B000B09723E554C3535D213DA3C60076EA557E
:1030C0004ABD2DD7759D6350F51D71CCC2C9389F7F
:1030D000C833136A73EC4B2CAEA36A8D2995C415C3
:1030E00090DAFA5EE4A2618A5315E7C746AEAF5D97
:1030F0009EA9E66ED1242B01C160648F72D7A7937D
:103100001EBECF94357DFEBCCA0569FBA6BF531613
:103110000C192A2DF4ED7B649C416F817F388FC59B
:1031200026B28C596F7E8A62910B1098DE0A28AF06
:103130008B0DCD5E6EF2EB601F49868AA2D48CCFD8
:10314000B26FF84F742E4304E14A32F57A2EA77914
:10315000FCBF638D34FF3E624FFD9F1D6E5B0E71A1
:10316000AAC70794E48FADB3277A7D288700158618
:10317000174582FE51E54B8C4A258E976FF0C7406C
:10318000A80816EB9DA1D41901DF76DABC2FA87E22
:10319000FE88D610D0ABA30E8CFA75B61A1D99EC2A
:1031A000F08B9B81E2A098410E99029F1AD5B347FC
:1031B000F0812C61B48D00EEDD056B5D5AD0FEE52B
:1031C000ED18835591BB39178C80CCD1E97F11194B
:1031D000B4BE4B46262C331A1C4C9197A6F7925D31
:1031E00081BB829345CFA9A37E4555F445E86C0485
:1031F0001059B5104E3102EF65F29A096345A2A647
:103200002DC43225F8D68C02385861BFD28471D7CC
:10321000962F62C57F1E970DF0180FCA9C49B8778C
:10322000B29DAEA19D416343D94594AD8EEDDB8D3A
:1032300071B6EBA9CD1EF02CABB07FB128A7B3B40B
:1032400055E7E8693114DBE016B54A8C15EE9D961A
:10325000D1387582D54B994884548BFAD7EEBF2765
:10326000970B8FD6DE57FBC77783F4B66D0261B933
:103270001955181BA3E52FA446AC999B1332B1EC4A
:103280000187E0071D442802CC695C089593461528
:10329000FD3E00DD42FC7FEC2566EEFF286EB0AC03
:1032A0009BC42C2E1BE0E7722A567E77E11EE903B1
:1032B0001E6916A34D56ED843545F77B9589603C14
:1032C000D3661529257022507FD187EFAB7CB9F9E1
:1032D00036B10A4494AF7A15E0A8D38B05DD18887F
:1032E0000442E9FECCA2F6B7D865FDC248C73C2D22
:1032F0009CBCFE3843B9186ABAC6FFC130F64B3DD4
:10330000D972B73E9828BB2AD8D53D90C9657B268F
:10331000838CACB3548AB0ED27B580FA4656C3A06F
:10332000113DD4DED2C89824B85F67E65448B6820F
:1033300020D00868E0D555387931BCB9084F941DC4
:103340006540E8DB0C6B3E9418D54B6101D64E030B
:1033500059F29BE6F683119518C769571AF960C3AD
:10336000A215F29087F884C595FB0EEBFD9DFE46F5
:103370005924F688045856E010571D3BB6905CFC63
:10338000C6F03B26B1C8193444FB1D051535B89E5F
:10339000BF7472380D38352393091A2B820E5B885F
:1033A0008EAA738A4347F6548950F1A3ACEF718C0F
:1033B000D82031BCE7032EAA621FD45E8D023A5991
:1033C000DEDEA29AA615EBE457EA5AE28F5F799205
:1033D0005649C3F2F455D174069E1E555955B4BBD7
:1033E0007135947FEF508DCEFC5A40B2D39F4B5A2B
:1033F00037C1F7FE2F26A0A3EBCBD78B337F393A0B
:10340000B11459F72CE752E711C237549AD1DC2690
:10341000B5A434D75A88324AE041F22917B5158647
:1034200015396B7F52D59B109E2FF32BE9F8BE0FF9
:10343000BD27412B84D33B580D1E328BDCCD687FDA
:10344000CD0BF0CC1B5B2571D8D3441D2F61B90384
:103450001B675846FA51539C62C8A9F474DE31A127
:103460005D5CAE6946297F2EC19234244CB264263D
:10347000B0253DC542086FD30F9181F7A144BF002D
:1034800001B1AFD740D7FBAD8E27B0C22C366BC889
:10349000B54C59CCA67C03A8B7497ED46384CA3303
:1034A00081BF73E04DB83BDA28E8DF4793524848C4
:1034B0007A265A84C6EF42E1220CD458055B4EEFBF
:1034C0003DB9E3ABE2C3E3422E73FD13334A6B2AEB
:1034D000A5FB1A4DB44143DC2183E3672E313E3610
:1034E0006814E672C5C5E3848751CF9567D278C664
:1034F000069D6116BA8394508C2DC75AD8AD598C4D
:10350000C4F5449F8F0A4EA77BB9FF2355C15AEBE0
:10351000A0C848203CBEF508DA6DB2879D6C32FE2B
:1035200081FC312C47FE3E04A896DCD234EF30D625
:1035300039684540D02CF99688C698B5962A997A6C
:103540000B6F5D992D0A89BCADD2E012BA1ECEB5C3
:103550000113E9791C939CD3E76318ABA6DC602CBC
:103560001D29877E0F1BB749F05DFA1F75FBFA75A1
:103570005F3D6B23AE93B1D7A97089DEFE3A3BCB9A
:10358000A46CB9DCF69D144DA639F30EDEEDE8A867
:1035900067568918DD261BF79D5693701316CD9C30
:1035A000BDEC7BB1BCD13B79362A7864C1EB321BD0
:1035B000ABBB748871DAA97938CAE32D4574A09C35
:1035C000BC5165EE02FB433CFF29B4A5B496D67806
:1035D000079AF663C53C4CD2FE00E63A2DBC18F1C2
:1035E000469600018C3BFDC6050024598FE0B1C40E
:1035F00067FB020000000004595A01000000FFFFB1
:10360000FFFFF75F0000FFFFFFFFCAFEBABEFFFF2C
:10361000FFFF666F6F626172000000000000000033
:10362000000000000000000000000000000000009A
:10363000000000000000000000000000000000008A
:10364000000000000000000000000000000000007A
:10365000000000000000000000000000000000006A
:10366000000000000000000000000000000000005A
:10367000000000000000000000000000000000004A
:10368000000000000000000000000000000000003A
:10369000000000000000000000000000000000002A
:1036A000000000000000000000000000000000001A
:1036B000000000000000000000000000000000000A
:1036C00000000000000000000000000000000000FA
:1036D00000000000000000000000000000000000EA
:1036E00000000000000000000000000000000000DA
:1036F000000000000000000000003F370000000054
:103700000004003737000800000004002F370210C3
:10371000000000040027370118000000100000001E
:103720000000000000000076616C75655F33007674
:10373000616C75655F320076616C75655F3100762E
:10374000657273696F6E006170703A20202020737B
:103750006F616D2D6D6173746572206275696C7433
:1037600020323032362D30372D31342031323A3359
:10377000352043455354206279206572696B2E0DC4
:103780000A626F6172643A202041726475696E6FDB
:10379000204D6567610D0A6D63753A202020204138
:1037A000746D656C2041544D65676132353630204B
:1037B00041565220402031364D487A2C20386B201B
:1037C0007372616D2C203235366B20666C617368C4
:1037D0000D0A00000C94E2510C9409720C947E3A8C
:1037E0000C94E22E0C94D4720C94DA3C0C949669EE
:1037F0000C94FD340C94D3730C94A7470C944A1D7D
:103800000C941D750C948E240C94AD6F0C949C3DFF
:103810000C94C8760C945F1D0C94F6600C94453A99
:103820000C9407770C94513F0C94816A0C94E949ED
:103830000C942C630C94494B0C94B1420C94294881
:103840000C9456210C941F770C94583E0C94891DAF
:103850000C94AC760C9487330C943C1F0C940F6C36
:103860000C941E2F0C9424370C94F2390C94073AC4
:103870000C9433290C9491770C94953E0C94313828
:103880000C946F3F0C94F2290C942A240C94CF3E94
:103890000C94796C0C94A5770C9475420C941725B4
:1038A0000C94F86A0C94BD4F0C94981D0C940D5018
:1038B0000C945A3A0C94234D0C94C5600C943A52D3
:1038C0000C9463500C94651D0C94591D0C948F1D21
:1038D0000C94A8280C94501D0C94951D0C94771DE5
:1038E0000C94F4390C94381D0C944B730C94B56FF4
:1038F0000C9473610C9439430C94A2750C94B26FC0
:103900000C94F16D0C94253A0C94801D0C94BD1F01
:103910000C94F0610C945D770C94E5510C94B06FAD
:103920000C94A2340C94163A0C946E1D0C947C33B7
:103930000C94411D0C94FC4E0C9427750C94EF7163
:103940000C949B1D11241FBECFEFD1E2DEBFCDBF73
:1039500000E00CBF14E0A0E0B2E0E4EFF2E001E030
:103960000BBF02C007900D92A43AB107D9F72DE022
:10397000A4EAB4E001C01D92A73CB207E1F70E949F
:10398000C51C0C941C810C9400000E94583B60E004
:1039900070E080E490E40E942144F9CF0F931F93DC
:1039A000CF93DF9300D00F92CDB7DEB78C01FC012F
:1039B0008081082E000C990B0E948D808436910521
:1039C000A9F08136910579F16DE673E0C8010E9496
:1039D000C480892BF1F48FE090E00F900F900F904E
:1039E0000F90DF91CF911F910F910895BE016F5FEE
:1039F0007F4FC80101960E94397C892B51F0498183
:103A00005A816B817C81453351056105710521F037
:103A100018F08DEE9FEFE1CFFA018827E25EFE47B6
:103A20008F4F0C94F67DBE016F5F7F4FC8010196EA
:103A30000E94397C892B69F389819A81AB81BC8191
:103A400088309105A105B10520F48896A11DB11D0E
:103A5000C4CFAC01BD01485051096109710948301A
:103A6000510561057105A8F6CE96A11DB11DB5CF12
:103A70008FE790E0A0E0B0E0841B950BA60BB70B9E
:103A8000ACCF85E390E0A0E0B0E0841B950BA60BE3
:103A9000B70BA3CFDB01CA014697A109B1099DCF9E
:103AA0008DE290E0A0E0B0E0841B950BA60BB70B75
:103AB00094CFDB01CA010296A11DB11D8ECFDB019F
:103AC000CA01C396A11DB11D88CF8DE390E0A0E08F
:103AD000B0E0841B950BA60BB70B7FCF89E590E078
:103AE000A0E0B0E0841B950BA60BB70B76CF87E464
:103AF00090E0A0E0B0E0841B950BA60BB70B6DCF58
:103B00008DE490E0A0E0B0E0841B950BA60BB70B12
:103B100064CFDB01CA018096A11DB11D5ECFDB0120
:103B2000CA018496A11DB11D58CF8FE190E055CFF9
:103B300085E390E052CF83E290E04FCFEF92FF9287
:103B40000F931F93CF93DF93EC017B018A01892BA5
:103B5000B9F1E114F10421F10115110589F0F9829F
:103B6000E8821B830A831D821C821F821E8280E0E2
:103B700090E0DF91CF911F910F91FF90EF9008950A
:103B800080E498E19F938F930E94CB75E0913D0371
:103B9000F0913E0386E190E019950F900F90DFCFF2
:103BA00083E498E19F938F930E94CB75E0913D034E
:103BB000F0913E0386E190E019950F900F90CCCFE5
:103BC00086E498E19F938F930E94CB75E0913D032B
:103BD000F0913E0386E190E019950F900F90B9CFD8
:103BE0008F929F92AF92BF92CF92DF92EF92FF920D
:103BF0000F931F93CF93DF93EC016B01B42EA52E8F
:103C0000892B09F449C0672B09F468C00C811D8118
:103C10008E819F810197801B910B8A809B8097FFEB
:103C200002C0880D991DEB2CFA2C8E159F0508F407
:103C30007C015401A01AB10A88819981800F911FDB
:103C4000EA14FB0400F1A501B6010E94A280081944
:103C500019090E0D1F1DB6016A0D7B1DA801888173
:103C600099810E94A2801D830C83C701DF91CF91AF
:103C70001F910F91FF90EF90DF90CF90BF90AF908A
:103C80009F908F900895A701B6010E94A2800C8199
:103C90001D810E0D1F1DE7CF8DE398E19F938F933C
:103CA0000E94CB75E0913D03F0913E0386E190E0E8
:103CB00019950F900F90C114D10499F08EE298E1FC
:103CC0009F938F930E94CB75E0913D03F0913E034B
:103CD00086E190E019950F900F9098CF8AE398E1D4
:103CE000EFCF8AE398E19F938F930E94CB75E09189
:103CF0003D03F0913E0386E190E019950F900F90FF
:103D0000DDCF0F931F93CF93DF93EC01892BC9F085
:103D10000A811B812E813F81215031098C819D8137
:103D2000281B390B37FF04C08A819B81280F391F5C
:103D3000C8010197821B930BDF91CF911F910F91C7
:103D4000089581E398E19F938F930E94CB75E09152
:103D50003D03F0913E0386E190E019950091020049
:103D6000109103008EE298E19F938F930E94CB7590
:103D7000E0913D03F0913E0386E190E019950F90AC
:103D80000F900F900F90C6CF8F929F92AF92BF92DD
:103D9000CF92DF92EF92FF920F931F93CF93DF9317
:103DA000EC016B017A01892B09F443C0C114D104E1
:103DB00009F452C0CE010E94811E8C01E816F9065A
:103DC00008F487018A809B80EE80FF805401AE1842
:103DD000BF08688179816E0D7F1D0A151B0500F1F2
:103DE000A501C6010E94A280E818F908E00EF11EA4
:103DF00068817981A701C6018A0D9B1D0E94A2805E
:103E0000FF82EE82C801DF91CF911F910F91FF9049
:103E1000EF90DF90CF90BF90AF909F908F900895DC
:103E2000A801C6010E94A280EE80FF80E00EF11E74
:103E3000E7CF87E398E19F938F930E94CB75E09142
:103E40003D03F0913E0386E190E019950F900F90AD
:103E5000C114D10409F0AECF84E398E19F938F930E
:103E60000E94CB75E0913D03F0913E0386E190E026
:103E700019950F900F909ECF9F92AF92BF92CF92C5
:103E8000DF92EF92FF920F931F93CF93DF9300D0B7
:103E90000F92CDB7DEB78B01A42E952E039709F0B4
:103EA00045C0BE016F5F7F4FF801848195810E94FC
:103EB000397CF801892B09F459C0D280C38084EE83
:103EC00094E00E94A07189818F71B82EE12CF12CB1
:103ED0000FED14E06D2D7C2DF801808191810E9401
:103EE000C480892B29F4F801B282EE24E394F12CEA
:103EF000F801038114810115110561F784EE94E046
:103F00000E94CE7180E090E0EF28F9F00F900F90C2
:103F10000F900F90DF91CF911F910F91FF90EF9035
:103F2000DF90CF90BF90AF909F90089580E198E18F
:103F30009F938F935F934F930E9479790F900F9087
:103F40000F900F908AEE9FEFE1CFCF92DF9286E045
:103F500098E19F938F939F92AF920E9479790F90EF
:103F60000F900F900F900F900F90ECCF85818F9353
:103F700084818F938BE098E1ECCFEF92FF920F93C7
:103F80001F93CF93DF93F42EE52E019709F03FC0E6
:103F900084EE94E00E94A07180E298E19F938F9359
:103FA000EF92FF920E9479790F900F900F900F90EF
:103FB000CFEDD4E003E118E18A81282F082E000C10
:103FC000330B3F938F9389818F9388818F931F93B6
:103FD0000F93EF92FF920E9479790B80DC81C02DC4
:103FE0008DB79EB708960FB6F8949EBF0FBE8DBFD3
:103FF000209711F784EE94E00E94CE7180E090E06B
:10400000DF91CF911F910F91FF90EF90089583E280
:1040100098E19F938F935F934F930E9479790F90CC
:104020000F900F900F908AEE9FEFEACF8091DA0405
:10403000813009F448C081E08093DA0484EE94E092
:104040000E9498710E94DC3D9093DC048093DB0415
:104050001092DE041092DD0481E793E09093E00477
:104060008093DF048FE08093E1041092E3041092C8
:10407000E20420E030E046E551E262EA74E187EED6
:1040800094E00E94096E87EE94E00E94646E20E046
:1040900030E04DEB5FE16EE974E18FEE94E00E9459
:1040A000096E8FEE94E00E94646E20E030E04CE3F5
:1040B0005FE16AE974E187EF94E00E94096E87EF9F
:1040C00094E00E94646E80E090E008959093DC0498
:1040D0008093DB0480E090E008952F923F924F920E
:1040E0005F926F927F928F929F92AF92BF92CF9288
:1040F000DF92EF92FF920F931F93CF93DF93CDB791
:10410000DEB72C970FB6F894DEBF0FBECDBF0AA165
:104110001BA12EA13FA1232B09F4B8C00115110545
:1041200009F4A3C0F8018281082E000C990B0CA0A1
:1041300002C0959587950A94E2F780FFA4C0C080DD
:10414000D18084EE94E00E94A071CE0101960E947D
:104150005D45A12CB12C8BEDE82E84E0F82E8CA1CE
:104160009DA1880F991F9C012B593B4F3C872B87A2
:1041700030E4432E32E4532E3FE0632E712C44EEA4
:10418000842E40E0942E1E0138E2230E311CF701EC
:10419000008111810115110509F442C061E070E050
:1041A000C8010E9450710E94D73FDF92CF929F9327
:1041B0008F93EB85FC8581818F9380818F936D81B7
:1041C0007E818F819885A30192010E94B57D5F93C6
:1041D0004F933F932F938C818F938B818F938A8101
:1041E0008F9389818F939F928F921F930F930E9439
:1041F00079793A862986AE01475F5F4F6EA17FA12C
:10420000C8010E94EF7962E070E0C8010E9450711D
:10421000FFEFAF1ABF0A0FB6F894DEBF0FBECDBFD7
:10422000F701E280F380E114F10409F0B0CF84EEED
:1042300094E00E94CE71C5012C960FB6F894DEBFB3
:104240000FBECDBFDF91CF911F910F91FF90EF90E7
:10425000DF90CF90BF90AF909F908F907F906F90A6
:104260005F904F903F902F9008950E94DE3F0CA0EA
:1042700002C0959587950A94E2F755E7C52E53E05D
:10428000D52E80FD5ECFA12CB12CD5CF83E098E157
:104290009F938F930E94CB75E0913D03F0913E0375
:1042A00086E190E019950F900F9038CFFB010297AF
:1042B000E1F483818F9382818F9386E298E19F93CB
:1042C0008F931F9283E08F938FED94E09F938F9352
:1042D0000E946D208DB79EB708960FB6F8949EBFCA
:1042E0000FBE8DBF80E090E008958BE298E19F9330
:1042F0008F935F934F930E9479790F900F900F9057
:104300000F908AEE9FEF08951F920F920FB60F92B3
:1043100011240BB60F922F933F934F935F936F939C
:104320007F938F939F93AF93BF93EF93FF93E0910E
:10433000A604F091A70486819781A085B185019696
:10434000A11DB11D86839783A087B18742855385C0
:104350006485758584179507A607B707F4F016825C
:10436000178210861186A289B389868597859C015C
:104370002F5F3F4F37872687209178003091790053
:10438000880F991FA80FB91F2D933C932685378559
:10439000808991892817390799F0FF91EF91BF9192
:1043A000AF919F918F917F916F915F914F913F91CD
:1043B0002F910F900BBE0F900FBE0F901F9018956E
:1043C000A689B789B093A704A093A604109799F083
:1043D00014968C9180937C00A689B78915968C9150
:1043E00080937B00848995890097B9F260E070E042
:1043F0000E948342D2CF80917A008F7780937A0097
:10440000F1CF8091FF04813019F081E08093FF04A7
:1044100080E090E008950C94012280E090E00895FF
:104420001F920F920FB60F9211240BB60F922F937B
:104430003F934F935F936F937F938F939F93AF932C
:10444000BF93EF93FF93A0911D02B0911E021097AE
:1044500041F01396ED91FC91149715968D919C91D6
:104460001995FF91EF91BF91AF919F918F917F919E
:104470006F915F914F913F912F910F900BBE0F90D5
:104480000FBE0F901F9018951F920F920FB60F92AC
:1044900011240BB60F922F933F934F935F936F931B
:1044A0007F938F939F93AF93BF93EF93FF93A091CD
:1044B0002202B0912302109741F01396ED91FC91E6
:1044C000149715968D919C911995FF91EF91BF913D
:1044D000AF919F918F917F916F915F914F913F919C
:1044E0002F910F900BBE0F900FBE0F901F9018953D
:1044F0001F920F920FB60F9211240BB60F922F93AB
:104500003F934F935F936F937F938F939F93AF935B
:10451000BF93EF93FF93A0912702B09128021097C9
:1045200041F01396ED91FC91149715968D919C9105
:104530001995FF91EF91BF91AF919F918F917F91CD
:104540006F915F914F913F912F910F900BBE0F9004
:104550000FBE0F901F9018951F920F920FB60F92DB
:1045600011240BB60F922F933F934F935F936F934A
:104570007F938F939F93AF93BF93EF93FF93A091FC
:104580002C02B0912D02109741F01396ED91FC9101
:10459000149715968D919C911995FF91EF91BF916C
:1045A000AF919F918F917F916F915F914F913F91CB
:1045B0002F910F900BBE0F900FBE0F901F9018956C
:1045C0001F920F920FB60F9211240BB60F922F93DA
:1045D0003F934F935F936F937F938F939F93AF938B
:1045E000BF93EF93FF93A0913102B09132021097E5
:1045F00041F01396ED91FC91149715968D919C9135
:104600001995FF91EF91BF91AF919F918F917F91FC
:104610006F915F914F913F912F910F900BBE0F9033
:104620000FBE0F901F9018951F920F920FB60F920A
:1046300011240BB60F922F933F934F935F936F9379
:104640007F938F939F93AF93BF93EF93FF93A0912B
:104650003602B0913702109741F01396ED91FC911C
:10466000149715968D919C911995FF91EF91BF919B
:10467000AF919F918F917F916F915F914F913F91FA
:104680002F910F900BBE0F900FBE0F901F9018959B
:1046900080910005813019F081E08093000580E071
:1046A00090E00895CF92DF92EF92FF920F931F93C5
:1046B000CF93DF939C01062FFC01EF5FFA4F11812E
:1046C00016271423618322953295307F3227207F6D
:1046D0003227E901C655DB4FC90186549B4F6C0157
:1046E00010C000FBEE24E0F8F12C082E001C00089E
:1046F0008E150F0479F0069516952296CC15DD05DA
:10470000B9F010FFF8CFA881B98114968C91149755
:10471000823039F71596ED91FC91169717968D9189
:104720009C911995069516952296CC15DD0549F7AD
:10473000DF91CF911F910F91FF90EF90DF90CF907D
:1047400008951F920F920FB60F9211240BB60F927D
:104750002F933F934F935F936F937F938F939F9389
:10476000AF93BF93EF93FF9340916B0063B180E0F1
:1047700090E00E945223FF91EF91BF91AF919F91E2
:104780008F917F916F915F914F913F912F910F90FA
:104790000BBE0F900FBE0F901F9018951F920F9297
:1047A0000FB60F9211240BB60F922F933F934F9396
:1047B0005F936F937F938F939F93AF93BF93EF9389
:1047C000FF9340916C006091030181E090E00E94B2
:1047D0005223FF91EF91BF91AF919F918F917F9164
:1047E0006F915F914F913F912F910F900BBE0F9062
:1047F0000FBE0F901F9018951F920F920FB60F9239
:1048000011240BB60F922F933F934F935F936F93A7
:104810007F938F939F93AF93BF93EF93FF934091B9
:104820006D006091060182E090E00E945223FF91AA
:10483000EF91BF91AF919F918F917F916F915F9118
:104840004F913F912F910F900BBE0F900FBE0F9085
:104850001F901895EF92FF920F931F93CF93DF93C2
:104860008B017A01029709F04AC0FB018281938192
:104870000E94CE1CEC0197FD27C0FC01EE0FFF1F2C
:10488000EC0FFD1FE55CFD4FA081B1818C91928101
:104890008923811116C085EE97E19F938F93FF9234
:1048A000EF920E9479790F900F900F900F90C0E0D7
:1048B000D0E0CE01DF91CF911F910F91FF90EF904B
:1048C000089588EE97E1E9CFF80183818F93828183
:1048D0008F9383EF97E19F938F93FF92EF920E94C4
:1048E00079790F900F900F900F900F900F90CE014D
:1048F000DF91CF911F910F91FF90EF9008958BEE74
:1049000097E19F938F93FF924F930E9479790F9035
:104910000F900F900F90CAEEDFEFCBCFDF92EF92A8
:10492000FF920F931F93CF93DF938B01D42EE52E2D
:10493000039709F05CC0FB01828193810E94CE1C29
:10494000EC01F80197FD40C0F48015816DE773E03C
:104950008F2D912F0E94C480892B29F162E873E08A
:104960008F2D912F0E94C480892B09F04FC0FE012A
:10497000EE0FFF1FEC0FFD1FE55CFD4FA081B18125
:1049800012969C91129782818095892312968C931E
:10499000C0E0D0E0CE01DF91CF911F910F91FF9049
:1049A000EF90DF900895FE01EE0FFF1FEC0FFD1F4B
:1049B000E55CFD4FA081B18112968C911297928196
:1049C000892B12968C93E4CF83818F9382818F936E
:1049D00083EF97E19F938F93EF92DF920E94797913
:1049E0000F900F900F900F900F900F90D3CF82EEFB
:1049F00097E19F938F935F934F930E9479790F90E4
:104A00000F900F900F90CAEEDFEFC4CF1F93FF926D
:104A10008DED97E19F938F93EF92DF920E947979CA
:104A20000F900F900F900F900F900F90ECCFDF92A0
:104A3000EF92FF920F931F93CF93DF938B01D42EAE
:104A4000E52E039709F0C0C0FB01828193810E948B
:104A5000CE1CEC01F80197FDA4C0F480158166E836
:104A600073E08F2D912F0E94C480892B09F447C0D9
:104A70006DE873E08F2D912F0E94C480892B59F42B
:104A8000C0E0D0E0CE01DF91CF911F910F91FF9058
:104A9000EF90DF9008956FE973E08F2D912F0E94C2
:104AA000C480892B69F369EB73E08F2D912F0E94ED
:104AB000C480892B09F459C06FEB73E08F2D912FBF
:104AC0000E94C480892BB1F16DEC73E08F2D912F82
:104AD0000E94C480892BA1F21F93FF928EEE97E172
:104AE0009F938F93EF92DF920E9479790F900F90AE
:104AF0000F900F900F900F90CAEEDFEFC3CFFE0123
:104B0000EE0FFF1FEC0FFD1FE55CFD4FA081B18193
:104B100012969C91129782818095892312968C938C
:104B2000A081B18111968C9111979281892B119658
:104B30008C93A6CFFE01EE0FFF1FEC0FFD1FE55C6F
:104B4000FD4FA081B18111969C9111978281809532
:104B5000892311968C93A081B18112968C91129722
:104B60009281892B12968C938BCFFE01EE0FFF1F43
:104B7000EC0FFD1FE55CFD4FA081B18111969C916A
:104B8000119782818095892311968C93A081B181A0
:104B900012969C91129782818095892312968C930C
:104BA0006FCF83818F9382818F9383EF97E19F9360
:104BB0008F93EF92DF920E9479790F900F900F9070
:104BC0000F900F900F905ECF88EF97E19F938F9398
:104BD0005F934F930E9479790F900F900F900F90F1
:104BE0008BCF80910505813069F181E080930505C7
:104BF00020E030E047E155E266E974E186E095E0C7
:104C00000E94096E86E095E00E94646E20E030E02C
:104C10004AE254E262E974E18EE095E00E94096E96
:104C20008EE095E00E94646E20E030E04EE854E2B1
:104C30006EE874E186E195E00E94096E86E195E0F8
:104C40000E94646E80E090E00895CF93DF93EC01C2
:104C5000892B89F0E881F981A081B1819C918281C1
:104C6000982321E030E0911102C020E030E0C9013A
:104C7000DF91CF9108958AED97E19F938F930E94E2
:104C8000CB75E0913D03F0913E0386E190E01995EC
:104C90000F900F90DFCF0F931F93CF93DF93EC0113
:104CA0008B01892BE9F0A881B981ED91FC911197D5
:104CB00012968C919281012B51F4809589238283E5
:104CC00080E090E0DF91CF911F910F910895892BA3
:104CD000828380E090E0DF91CF911F910F91089542
:104CE00087ED97E19F938F930E94CB75E0913D03F1
:104CF000F0913E0386E190E019950F900F90D3CF8D
:104D00000F931F93CF93DF938C01EB01892B09F451
:104D100050C0D801ED91FC91C330D105A9F1C43048
:104D2000D105F1F08AED9FEFCD2BA9F4A081B181DF
:104D300012969C91129782818095892312968C936A
:104D4000A081B18111968C9111979281892B119636
:104D50008C9380E090E0DF91CF911F910F910895A7
:104D6000A081B18111969C911197828180958923B0
:104D700011968C93A081B18112968C911297928199
:104D8000892B12968C93E5CFA081B18111969C91CD
:104D9000119782818095892311968C93A081B1818E
:104DA00012969C91129782818095892312968C93FA
:104DB000D0CF84ED97E19F938F930E94CB75E091C4
:104DC0003D03F0913E0386E190E019950F900F901E
:104DD000A0CF80E090E00895CF92DF92EF92FF9213
:104DE0006B017C0160E074E284EF90E0A701960122
:104DF0000E94B57D81E0C81684E2D80684EFE806FB
:104E0000F10408F07AC02115310581E04807510509
:104E100038F12115310588E04807510590F582E009
:104E200080931E05DA01C9010796A11DB11D43E05B
:104E3000B595A795979587954A95D1F70197A109BB
:104E4000B1098093390590933A05A0933B05B0933F
:104E50003C0580E090E0FF90EF90DF90CF900895C8
:104E600081E080931E05DA01C9010197A109B1090A
:104E70008093390590933A05A0933B05B0933C0588
:104E8000E8CF2115310580E448075105D8F483E0C7
:104E900080931E05DA01C901CF96A11DB11D36E030
:104EA000B595A795979587953A95D1F70197A1095B
:104EB000B1098093390590933A05A0933B05B093CF
:104EC0003C05C7CF84E080931E05DA01C9018150FB
:104ED0009F4FAF4FBF4F892F9A2FAB2FBB27A7FDF7
:104EE000BA950197A109B1098093390590933A05C4
:104EF000A0933B05B0933C05ACCF8FEF9FEFABCFBA
:104F00001F920F920FB60F9211240BB60F922F9390
:104F10003F934F935F936F937F938F939F93AF9341
:104F2000BF93CF93DF93EF93FF93C0913305D0915D
:104F30003405EE85FF8582859385009739F40684D4
:104F4000F785E02D828593850097C9F31092910033
:104F5000109295001092940090939900809398007D
:104F600080911E058093910085E0C132D80709F435
:104F700065C0A881B981ED91FC911197928112963B
:104F80008C918095892382830E84DF85C02D8A854C
:104F90009B85892B71F3A0913305B09134051C9644
:104FA0008D919C911D97009781F11E964D915C917A
:104FB0001F97FA01228533851A966D917C911B9774
:104FC000260F371F33872287609131057091320594
:104FD000FB019F010684F785E02DEA17FB07C9F75F
:104FE000F901578746876A177B0709F449C01F965E
:104FF0001C921E921E9760E070E00E948342E09136
:105000003305F091340515861486D0933405C0938A
:105010003305FF91EF91DF91CF91BF91AF919F91B8
:105020008F917F916F915F914F913F912F910F9051
:105030000BBE0F900FBE0F901F901895A0913105D9
:10504000B0913205E5E0A132BE07A9F0CD91DC9127
:105050001197E881F98182819A81892B82831E963A
:105060000D90BC91A02DF5E0A132BF0779F7A0917A
:105070003305B0913405C0912F05D09130058FCF05
:105080001E962D913C911F97309332052093310548
:10509000AECF0F931F9320911F0530912005213033
:1050A000310509F44AC00FEF1FEF9801009327055F
:1050B000109328052093290530932A0510922E0578
:1050C00010922D0521E235E03093300520932F0515
:1050D0003093320520933105309334052093330506
:1050E00060933505709336058093370590933805A6
:1050F0000E94EC26892B31F58091390590913A0573
:1051000090932C0580932B051092900010929100A3
:1051100010929500109294009093990080939800BB
:1051200080911E058093910082E08093710081E060
:1051300090E09093200580931F0580E090E01F9100
:105140000F9108958FEF9FEFFACF80E090E00895E0
:105150009F92AF92BF92CF92DF92EF92FF920F9306
:105160001F93CF93DF93CDB7DEB72C970FB6F8948C
:10517000DEBF0FBECDBFA42E952E04EA14E00115AC
:10518000110509F460C01A83098388E490E09E83C6
:105190008D83CE0101969093A5048093A4041C8670
:1051A0001B861092B9008D818093B80000E010E05A
:1051B00035EAB32E46EAC42E47E1D42E05C00F5F70
:1051C0001F4F0038110559F1C801880F991F9C83A2
:1051D0008B8318861F820E94C93F9C878B870E9401
:1051E000E13DB092BC0080E090E00E94C6427C01AC
:1051F0000E94E33DEF2819F71F930F93DF92CF92A0
:105200009F92AF920E9479790F900F900F900F901C
:105210000F900F900F5F1F4F00381105A9F680E027
:1052200090E02C960FB6F894DEBF0FBECDBFDF9195
:10523000CF911F910F91FF90EF90DF90CF90BF9093
:10524000AF909F90089583EA97E19F938F930E9478
:10525000CB75E0913D03F0913E0386E190E0199516
:105260000F900F9090CFEF92FF920F931F93CF93D9
:10527000DF93CDB7DEB761970FB6F894DEBF0FBEF0
:10528000CDBFFB01029709F099C0BE01635F7F4F5C
:10529000828193810E94397C892B09F49AC00D8503
:1052A0001E8534EAE32E34E0F32EE114F10409F410
:1052B00075C0FA82E98288E490E09E838D838FEF47
:1052C0009FEF9C838B83CE0101969093A5048093DE
:1052D000A4041C861B861092B9008D818093B800AF
:1052E000003811050CF04AC0C801880F991F816071
:1052F0009C838B83CE0141969A87898781E090E0D9
:1053000098878F830E94C93F9C878B870E94E13DCD
:1053100085EA8093BC0080E090E00E94C6420E9433
:10532000E33D8F819885892BE1F489891F928F93C2
:1053300080EC97E19F938F930E94CB750F900F9015
:105340000F900F9080E090E061960FB6F894DEBF6A
:105350000FBECDBFDF91CF911F910F91FF90EF90C6
:1053600008951F930F9387EC97E19F938F930E946B
:10537000CB750F900F900F900F90E4CF80EA97E1DC
:105380009F938F930E94CB75E0913D03F0913E0374
:1053900086E190E019950F900F90A6CF83EA97E1F0
:1053A0009F938F930E94CB75E0913D03F0913E0354
:1053B00086E190E019950F900F907BCF81ED97E1FA
:1053C0009F938F930E94CB750F900F908AEE9FEF63
:1053D000BBCF8EEC97E19F938F930E94CB750F907C
:1053E0000F90F4CFEF92FF920F931F93CF93DF9321
:1053F000CDB7DEB761970FB6F894DEBF0FBECDBF55
:105400008B01039709F0A7C0BE01635F7F4FF801CE
:10541000828193810E94397C892B09F4B0C0ED848C
:10542000FE84BE01635F7F4FF801848195810E94F5
:10543000397C892B09F4ACC08D859E85AF85B889F0
:105440008115F1E09F07A105B10508F08FC0898B98
:1054500004EA14E00115110509F46DC01A830983EB
:1054600088E490E09E838D838FEF9FEF9C838B83F6
:10547000CE0101969093A5048093A4041C861B86FC
:105480001092B9008D818093B80020E8E216F104F3
:105490000CF041C0C701880F991F9C838B83CE01FC
:1054A00041969A87898781E090E098878F830E9450
:1054B000C93F9C878B870E94E13D85EA8093BC00B1
:1054C00080E090E00E94C6420E94E33D8F81988573
:1054D000892B79F480E090E061960FB6F894DEBFF6
:1054E0000FBECDBFDF91CF911F910F91FF90EF9035
:1054F0000895FF92EF9289891F928F938BEA97E12B
:105500009F938F930E94CB750F900F900F900F90E9
:105510000F900F90DFCF8DE997E19F938F930E94BB
:10552000CB75E0913D03F0913E0386E190E0199543
:105530000F900F90AFCF83EA97E19F938F930E94D4
:10554000CB75E0913D03F0913E0386E190E0199523
:105550000F900F9083CF8DEB97E19F938F930E94D5
:10556000CB750F900F908AEE9FEFB6CF87EB97E148
:105570009F938F930E94CB750F900F90F4CF8EEC7A
:1055800097E19F938F930E94CB750F900F90EBCF75
:105590008AEB97E19F938F930E94CB750F900F90AA
:1055A000E2CF1F920F920FB60F9211240BB60F92FB
:1055B0002F933F934F935F936F937F938F939F931B
:1055C000AF93BF93CF93DF93EF93FF93C091A40466
:1055D000D091A5042097C9F09091B900892F887FB8
:1055E000803609F4B3C030F5803409F451C008F0B6
:1055F00078C0883109F493C008F4B2C0883209F445
:105600008EC0987E903209F480C0FF91EF91DF91B7
:10561000CF91BF91AF919F918F917F916F915F914A
:105620004F913F912F910F900BBE0F900FBE0F9097
:105630001F901895883AF1F098F1883BB1F008F482
:10564000B8C0907F903C09F78E819F8101979F831E
:105650008E8385EC8093BC0060E070E08A859B853A
:105660000E9483421B861A86D0CF8E819F8101972C
:105670009F838E838A859B85892B09F46CC0E8857E
:10568000F985CF0101969987888780818093BB0037
:105690008E819F8102970CF185EC8093BC00B5CF81
:1056A000883841F008F068C0883609F44FC0803867
:1056B00009F0ABCFE885F985CF01019699878887F6
:1056C0008091BB0080838E819F8101979F838E8311
:1056D0008E819F8118161906FCF285E88093BC0024
:1056E00094CF803509F44CC0883509F066C0E88550
:1056F000F985CF010196998788878091BB008083C7
:105700008E819F8101979F838E8384E98093BC0063
:105710006FEF7FEF8A859B850E94834276CF8E81D3
:105720009F8118161906DCF5E885F985CF010196E9
:105730009987888780818093BB008E819F810197A4
:105740009F838E8385E88093BC005FCF8A859B858D
:10575000892B09F0A1CF8FEF9FEF9F838E8355CFC9
:10576000883019F0803109F050CF8A818093BB00D6
:1057700085E88093BC0049CF803A09F46ACF45CFD1
:10578000E885F985CF010196998788878091BB00CC
:1057900080838E819F8101979F838E8379CF84E957
:1057A0008093BC0060E070E08A859B850E94834204
:1057B0002CCF803B09F45ECF28CF883409F4A5CFE5
:1057C00024CF80913D05813069F181E080933D05D2
:1057D00020E030E043E359E26AE874E18EE395E0CB
:1057E0000E94096E8EE395E00E94646E20E030E036
:1057F00042EF59E266E874E186E495E00E94096EA2
:1058000086E495E00E94646E20E030E048EA58E2C9
:1058100062E874E18EE495E00E94096E8EE495E002
:105820000E94646E80E090E0089580E090E008952A
:1058300080E090E00895EF92FF920F931F93CF9333
:10584000DF93EC01892B09F447C085E0E82EF12CA9
:1058500060E070E0CE010E944B2680EE91E00E9455
:1058600089450E94E13D61E070E0CE010E944B2637
:1058700063E070E0CE010E94802686E490E00E9402
:105880008945CE010E9425268C010E94E33D8AE9CC
:1058900091E00E94894560E070E0CE010E94802680
:1058A00081E0E81AF10859F0012B91F681E090E0CF
:1058B000DF91CF911F910F91FF90EF90089581E0BC
:1058C000012B41F490E0DF91CF911F910F91FF9058
:1058D000EF90089580E0F6CF8AE997E19F938F9348
:1058E0000E94CB75E0913D03F0913E0386E190E08C
:1058F00019950F900F90A9CFCF92DF92EF92FF9260
:105900000F931F93CF93DF93EC018B016A01892BD7
:1059100009F488C00115110509F474C0E12CF12CBB
:10592000C114D10409F45EC00E94E13D60E070E062
:10593000CE010E944B2685E090E00E94894563E0FD
:1059400070E0CE010E94802689E090E00E948945A7
:10595000F801808186958083CE010E942526982FAC
:10596000979599279795F8018081892B80830E94CC
:10597000E33D87E390E00E94894560E070E0CE015E
:105980000E94802661E070E0CE010E944B26C70194
:1059900087709927079711F40F5F1F4FFFEFEF1ADA
:1059A000FF0ACE14DF0409F0BFCFA60147705527C8
:1059B0004115510569F0F801808190E028E030E060
:1059C000241B350B02C0959587952A95E2F78083B5
:1059D000C601DF91CF911F910F91FF90EF90DF9063
:1059E000CF9008958EE897E19F938F930E94CB7597
:1059F000E0913D03F0913E0386E190E019950F9010
:105A00000F90E6CF81E997E19F938F930E94CB752A
:105A1000E0913D03F0913E0386E190E019950F90EF
:105A20000F907CCF84E997E19F938F930E94CB7571
:105A3000E0913D03F0913E0386E190E019950F90CF
:105A40000F9068CFAF92BF92CF92DF92EF92FF920A
:105A50001F93CF93DF936C017B015A01892B09F4CB
:105A600070C0E114F10409F45CC0A114B10409F49C
:105A700048C010E0C0E0D0E014C085E090E00E9493
:105A8000894561E070E0C6010E944B2680E490E009
:105A90000E9489450E94E33D16952196CA15DB05B3
:105AA00029F1CE0187709927892B19F4F7011191FB
:105AB0007F010E94E13D60E070E0C6010E944B263C
:105AC00010FDDBCF8BE390E00E94894561E070E040
:105AD000C6010E944B268AE090E00E9489450E9400
